:100000000C9424010C9441010C9441010C94410185
:100010000C9441010C9441010C9441010C94410158
:100020000C9441010C9441010C9441010C94410148
:100030000C9441010C9441010C9441010C94410138
:100040000C9441010C9441010C9441010C94410128
:100050000C9441010C9441010C9441010C94410118
:100060000C9441010C944101000000000000002E9E
:1000700000000600060000147F147F1406497F4923
:1000800030241008240036493650000000000600D5
:10009000004136000000364100000008000000006A
:1000A000081C080040200000000008080000200094
:1000B000000000003006000036414136000000001C
:1000C000360030494906000049493600060808361E
:1000D0000006494930003649493000000101360028
:1000E0003649493600064949360000140000002010
:1000F0001400000000081422000014141400002250
:100100001408000001310600364955592E360909F8
:100110003600774949360036414100007741413683
:1001200000364949000036090900003641513000C7
:100130003608083600000036000000404036003621
:10014000081422003640400000360106013636040D
:100150001036003641413600360909060036412185
:1001600056003609192600064949300000013701BA
:1001700000364040360036403600003640304036CB
:1001800036080836000648483600205149450277AF
:1001900041410000000630000000414177000002AC
:1001A0000102000040400000000102000020545401
:1001B0003840003648300030484800003048487623
:1001C000003854540800086C0A00000854543800E1
:1001D00036080830000034000000004034000036CB
:1001E00010280000360000000030081008303008E9
:1001F00008300030484830007814140800081414FF
:10020000680030080800000854542000082C4800FA
:10021000003040403000304030000030402040305E
:100220002810102800085050380024342C240008CE
:100230003641000000360000000041360800080882
:10024000101000364136000011241FBECFEFD8E059
:10025000DEBFCDBF11E0A0E0B1E0EEE2F4E102C00C
:1002600005900D92AE31B107D9F725E0AEE1B1E0CE
:1002700001C01D92AE31B207E1F70E9443010C9418
:10028000D4090C940000CDB7DEB7C456D1090FB61F
:10029000F894DEBF0FBECDBF0E94880181E00E94AE
:1002A000FA010E94150210E07E012FEFE21AF20A15
:1002B0000E94150244E160E080E091E00E9480022B
:1002C0004EE160E08FE091E00E9480021F921F9358
:1002D00083E191E09F938F93FF92EF920E94DC065F
:1002E00040E060E0C7010E9480020E94AC021F5FF4
:1002F0008FEF99E628E1815090402040E1F700C05F
:1003000000000F900F900F900F900F900F90D0CF94
:100310000E94E8020E940E038CE30E941D0380E00D
:100320000E9434038EEA0E94340388EA0E94340358
:100330008FE30E94340383ED0E94340380E00E9427
:10034000340380EA0E94340380EC0E9434038AED77
:100350000E94340382E10E94340381E80E94340346
:100360008FE70E94340384EA0E94340386EA0E94E5
:10037000340385ED0E94340380E80E9434038DE845
:100380000E94340384E10E9434038FEA0E94340304
:100390000C944A03CF93DF9300D0CDB7DEB78983A7
:1003A0006A83603810F08FE78A830E940E038CE323
:1003B0000E941D0380E80E9434038A818F700E948E
:1003C000340380E80E9434038A8182958F708061B3
:1003D0000E94340380E80E9434038981883008F049
:1003E00087E0806B0E9434030F900F90DF91CF91D4
:1003F0000C944A03CF93C82F0E940E038CE30E94F3
:100400001D0380E00E943403C13048F480EC0E9458
:10041000340380EA0E943403CF910C944A03E1F73D
:1004200088EC0E94340381EAF5CFEEE1F1E080E050
:1004300094E0DF019C011D9221503040E1F70895C6
:10044000E62FE695E695E69590E8E99FF001112400
:10045000E80FF11DE25EFE4F677021E001C0220F40
:100460006A95EAF78081822B80830895CF92DF928C
:10047000EF92FF921F93CF93DF9300D000D00F92A3
:10048000CDB7DEB76A834B8395E0899F9001112435
:10049000285330402C833D8310E0EC81FD81C490D3
:1004A000E12CF12CD12CFA81F10FF983C6010E2C2D
:1004B00002C0959587950A94E2F780FF05C06B818D
:1004C0006E0D89810E9420022FEFE21AF20A37E0B6
:1004D000E316F10459F71F5F8C819D8101968C838F
:1004E0009D831530D1F60F900F900F900F900F90C5
:1004F000DF91CF911F91FF90EF90DF90CF90089503
:100500001F93CF93DF9300D000D0CDB7DEB78983A0
:100510009A836B834C8310E0E981FA81E10FF11D2E
:100520008081811108C00F900F900F900F90DF9184
:10053000CF911F9108954C816B810E9436021F5FFD
:100540008B818A3728F08C81885F8C831B82E4CF73
:100550008B818A5F8B83E0CF0F931F93CF93DF93C1
:1005600000D000D0CDB7DEB700E010E01B8260E025
:100570008B810E94CA010E940E038CE30E941D031E
:1005800080E40E943403C801825E9E4F89839A836F
:1005900090E89C83E981FA818191E983FA830E9442
:1005A0003403FC81F150FC83F111F4CF0E944A0323
:1005B0008B818F5F8B8300581F4F8830C1F60F905F
:1005C0000F900F900F90DF91CF911F910F91089591
:1005D000E9EBF0E010826081637070E080E090E011
:1005E0000E945E049B01AC0160E070E080E890E452
:1005F0000E94EA049B01AC010E944F039B01AC01E5
:1006000060E070E080EC91E40E94BB030E942D0446
:100610006093B80084E08093BC00089584EA8093DE
:10062000BC008091BC0087FFFCCF9091B900987FFF
:1006300081E0983009F080E00895880F8093BB0036
:1006400084E88093BC008091BC0087FFFCCF809140
:10065000B900887F883121F0803221F482E008954A
:1006600081E0089583E008958093BB0084E880933F
:10067000BC008091BC0087FFFCCF8091B900887FCF
:10068000883221F0803321F482E0089581E00895DA
:1006900083E0089584E98093BC0008955058BB27F7
:1006A000AA270E9466030C94B0040E94A20438F0AA
:1006B0000E94A90420F039F49F3F19F426F40C9409
:1006C0009F040EF4E095E7FB0C949904E92F0E9437
:1006D000C10458F3BA17620773078407950720F01F
:1006E00079F4A6F50C94E3040EF4E0950B2EBA2FE2
:1006F000A02D0B01B90190010C01CA01A001112428
:10070000FF27591B99F0593F50F4503E68F11A16D3
:10071000F040A22F232F342F4427585FF3CF469564
:1007200037952795A795F0405395C9F77EF41F1686
:10073000BA0B620B730B840BBAF09150A1F0FF0F50
:10074000BB1F661F771F881FC2F70EC0BA0F621F3C
:10075000731F841F48F4879577956795B795F7952C
:100760009E3F08F0B0CF9395880F08F09927EE0FC1
:100770009795879508950E94CF030C94B0040E942A
:10078000A90458F00E94A20440F029F45F3F29F028
:100790000C94990451110C94E4040C949F040E944D
:1007A000C10468F39923B1F3552391F3951B550BBD
:1007B000BB27AA2762177307840738F09F5F5F4F34
:1007C000220F331F441FAA1FA9F335D00E2E3AF073
:1007D000E0E832D091505040E695001CCAF72BD08B
:1007E000FE2F29D0660F771F881FBB1F26173707DC
:1007F0004807AB07B0E809F0BB0B802DBF01FF270E
:1008000093585F4F3AF09E3F510578F00C9499044D
:100810000C94E4045F3FE4F3983ED4F38695779517
:100820006795B795F7959F5FC9F7880F911D9695C6
:10083000879597F90895E1E0660F771F881FBB1F22
:10084000621773078407BA0720F0621B730B840BCF
:10085000BA0BEE1F88F7E09508950E94C90488F04E
:100860009F5798F0B92F9927B751B0F0E1F0660F74
:10087000771F881F991F1AF0BA95C9F714C0B130B5
:1008800091F00E94E304B1E008950C94E304672F13
:10089000782F8827B85F39F0B93FCCF386957795E4
:1008A0006795B395D9F73EF49095809570956195CD
:1008B0007F4F8F4F9F4F0895E89409C097FB3EF4F8
:1008C00090958095709561957F4F8F4F9F4F99239D
:1008D000A9F0F92F96E9BB279395F695879577951B
:1008E0006795B795F111F8CFFAF4BB0F11F460FFDB
:1008F0001BC06F5F7F4F8F4F9F4F16C0882311F033
:1009000096E911C0772321F09EE8872F762F05C046
:10091000662371F096E8862F70E060E02AF09A95E1
:10092000660F771F881FDAF7880F9695879597F9D6
:10093000089597F99F6780E870E060E008959FEF61
:1009400080EC089500240A94161617061806090666
:10095000089500240A941216130614060506089535
:10096000092E0394000C11F4882352F0BB0F40F4BD
:10097000BF2B11F460FF04C06F5F7F4F8F4F9F4FFD
:10098000089557FD9058440F551F59F05F3F71F07F
:100990004795880F97FB991F61F09F3F79F08795E6
:1009A0000895121613061406551FF2CF4695F1DF6F
:1009B00008C0161617061806991FF1CF86957105FF
:1009C000610508940895E894BB2766277727CB0133
:1009D00097F90895FA01EE0FFF1F309621053105B2
:1009E000A1F16115710561F48038BFE39B0749F1FE
:1009F00068949038810561F08038BFEF9B0741F023
:100A000099234AF5FF3FE1053105210519F1E894E5
:100A10000894E795D901AA2329F4AB2FBE2FF85FDC
:100A2000D0F310C0FF5F70F4A695E0F7F73950F0EF
:100A300019F0FF3A38F49F779F930DD00F9007FC81
:100A40009058089546F00C949F0460E070E080E8B0
:100A50009FE308954FE79F775F934F933F932F93C3
:100A60000E94E5052F913F914F915F910E94610691
:100A70000C94420529F416F00C9499040C94E304A8
:100A80000C949F040E94C904A8F39638A0F707F8B5
:100A90000F92E8942BE33AEA48EB5FE70E9477066F
:100AA0000F920F920F924DB75EB70F920E942D06D4
:100AB000ECEAF3E10E9474054F915F91EF91FF9191
:100AC000E595EE1FFF1F49F0FE57E0684427EE0F43
:100AD000441FFA95E1F74195550B0E94A7050F9029
:100AE00007FE0C949B050895DF93CF931F930F93FC
:100AF000FF92EF92DF927B018C01689406C0DA2EA0
:100B0000EF010E947406FE01E894A59125913591AC
:100B100045915591A6F3EF010E946603FE019701EE
:100B2000A801DA9469F7DF90EF90FF900F911F9181
:100B3000CF91DF9108959B01AC0160E070E080E807
:100B40009FE30C94BB030C9499040C94CE060E9472
:100B5000C904D8F39923C9F3940F511DA3F39150FD
:100B6000504094F059F0882332F0660F771F881FA9
:100B700091505040C1F79E3F51052CF7880F911DB1
:100B80009695879597F908955F3FACF0983E9CF055
:100B9000BB27869577956795B79508F4B1609395CF
:100BA000C1F7BB0F58F711F460FFE8CF6F5F7F4FBD
:100BB0008F4F9F4FE3CF0C94E40416F00C94CE06B5
:100BC0000C949F0468940C9499040E94C904A8F39F
:100BD0009923C1F3AEF3DF93CF931F930F93FF924B
:100BE000C92FDD2788232AF02197660F771F881FDA
:100BF000DAF720E030E040E85FEB9FE3883920F04F
:100C0000803E38F021968F770E944F03E4EDF3E1A8
:100C100004C00E944F03E1E0F4E10E9474058B01DF
:100C2000BE01EC01FB2E6F5771097595771F880B7C
:100C3000990B0E945E0428E132E741E35FE30E94E2
:100C40007406AF2D9801AE01FF900F911F91CF91C7
:100C5000DF910E9466030C94B004FA01DC01AA0F34
:100C6000BB1F9B01AC01BF5728F422273327442721
:100C7000507820C0B75190F4AB2F0024469537959B
:100C80002795011CA395D2F3002071F0220F331F8A
:100C9000441FB395DAF30ED00C944E036130710506
:100CA000A0E88A07B94630F49B01AC016627772794
:100CB00088279078309621F02083318342835383B4
:100CC00008950E9474060C94B0040E94A20438F0A7
:100CD0000E94A90420F0952311F00C9499040C941F
:100CE0009F0411240C94E4040E94C10470F3959FA6
:100CF000C1F3950F50E0551F629FF001729FBB2713
:100D0000F00DB11D639FAA27F00DB11DAA1F649FAE
:100D10006627B00DA11D661F829F2227B00DA11D61
:100D2000621F739FB00DA11D621F839FA00D611DE7
:100D3000221F749F3327A00D611D231F849F600D08
:100D4000211D822F762F6A2F11249F5750409AF031
:100D5000F1F088234AF0EE0FFF1FBB1F661F771FBD
:100D6000881F91505040A9F79E3F510580F00C9488
:100D700099040C94E4045F3FE4F3983ED4F3869521
:100D800077956795B795F795E7959F5FC1F7FE2B28
:100D9000880F911D9695879597F908959F3F31F09B
:100DA000915020F4879577956795B795880F911D99
:100DB0009695879597F90895AEE0B0E0E2EEF6E0FB
:100DC0000C94AD0986E08C832B893C8929833A8376
:100DD0008FEF9FE78D839E83AE01495E5F4F6D89E4
:100DE0007E89CE0101960E940007EF81F8852B894C
:100DF0003C89E20FF31F10822E96E2E00C94C909A1
:100E0000ABE0B0E0E6E0F7E00C94A0096C017B01F8
:100E10008A01FC0116821782838181FFDFC13AE0DB
:100E2000532EF6012381F70123FD859123FF819144
:100E30007F01811509F437C1853239F423FD95917D
:100E400023FF91917F01953229F4B60190E00E9431
:100E50000709E7CF30E0912C612C712CF0E27F166E
:100E600040F59B32D9F058F49032D1F09332F1F042
:100E70009E3291F576FC17C1689476F806C09D32D3
:100E800091F09033C1F4689470F8F70123FD9591C7
:100E900023FF91917F019111E1CF28C0689471F8EF
:100EA000689472F8F2CF689473F8EFCF689474F88E
:100EB000ECCF77FC1BC080ED890F8A30C8F676FE38
:100EC00005C0959C800D1124982EDFCF659C800D68
:100ED0001124682E7F2AD9CF9C3619F4689477F8AC
:100EE000D4CF9C3409F445C0983679F2892F8F7D90
:100EF0008554833008F43FC0933609F461C09337BA
:100F000009F46BC0933509F477C0943619F099361B
:100F100009F0A4C0F80177FE9AC0619171918191A6
:100F200091918F01272D2F76822E97FF04C00E946A
:100F30009509689487F82AE030E05E014FEFA41A23
:100F4000B40AA5010E943709782E7A1886FECFC010
:100F5000882D8E7F791408F0C9C084FE1DC182FCE3
:100F600011C12EEE8222B92C882D867809F4CBC0CF
:100F70000EC131E08ACF311501F1085F1F4F8FE3B9
:100F8000898321E0822E912C5E012FEFA21AB20AF2
:100F9000E89477F873FC03C086149104F0F181148F
:100FA000910409F041C0611409F43BCFB60180E21D
:100FB00090E00E9407096A94F6CF0C5F1F4FDFCFC5
:100FC000F801808189830E5F1F4F91E0892E912C5B
:100FD0005E01FFEFAF1ABF0ADBCFF801A190B1901D
:100FE0008F01692D70E076FC02C06FEF7FEFC501C5
:100FF0000E94FC084C01CCCFF801A190B1908F0168
:10100000692D70E076FC02C06FEF7FEFC5010E9492
:10101000F1084C01689477F8BDCFB60180E290E00A
:101020000E9407096A94B8CFF50177FC859177FE95
:1010300081915F01B60190E00E94070981E0611093
:1010400001C080E0681AF1E08F1A9108A8CF619181
:101050007191872F880F880B982F63CF9537C9F42C
:10106000872CE89484F82AE030E0F80187FE39C044
:1010700061917191819191918F015E01FFEFAF1AA2
:10108000BF0AA5010E943709782E7A18E89487F8DC
:101090005DCF872D897F882E903799F058F4983549
:1010A000A9F09F36D9F0F601868197812B96EFE063
:1010B0000C94BC099837B9F774FC05C020E130E006
:1010C000D4CF689484F8689482F8F8CF74FE03C093
:1010D000E72DE6608E2E20E132E0C7CF28E030E039
:1010E000C4CF6191719180E090E0C6CF882EB72C7B
:1010F00084FE3ACFFE01E70DF11D8081803309F0B7
:1011000044C049EE842283FC0EC080FE51C0972C5F
:10111000B61418F4960C9B18B62C862D8B196B14EC
:1011200008F480E0B80EB61408F044C06B1884FED2
:1011300043C0B60180E390E00E94070982FE09C027
:1011400088E590E081FC02C088E790E0B6010E944B
:1011500007097914E0F15E018FEFA81AB80A7A94B2
:1011600082E0882E912C8C0E9D1E870C911CF40120
:1011700082914F01B60190E00E9407098A149B04F6
:10118000B1F711CFB92C882EB5CF82FC02C0B39431
:10119000BACFB394B394B7CFB92C882EE5CEB601AD
:1011A00080E290E00E940709A394A614C0F3B5CF93
:1011B000AB2CFBCF612CBBCF882D867851F280E21F
:1011C00081FC8BE287FC8DE2B60190E0C0CFB601D6
:1011D00080E390E00E9407099A94BBCF8FEF9FEFC6
:1011E00065CFFC010590615070400110D8F78095E3
:1011F00090958E0F9F1F0895FC01615070400190E3
:101200000110D8F7809590958E0F9F1F08950F932A
:101210001F93CF93DF93182F092FEB018B8181FD53
:1012200009C00FEF1FEF812F902FDF91CF911F91FA
:101230000F91089582FF14C02E813F818C819D8182
:10124000281739073CF4E881F981CF01019688839A
:10125000998310838E819F8101968E839F83E3CF34
:10126000E885F985812F0995892BA1F3DACFFA0159
:10127000AA27283051F1203181F1E8946F936E7FD5
:101280006E5F7F4F8F4F9F4FAF4FB1E03ED0B4E0C6
:101290003CD0670F781F891F9A1FA11D680F791F07
:1012A0008A1F911DA11D6A0F711D811D911DA11D18
:1012B00020D009F468943F912AE0269F1124301928
:1012C000305D3193DEF6CF010895462F4770405DC3
:1012D0004193B3E00FD0C9F7F6CF462F4F70405D72
:1012E0004A3318F0495D31FD4052419302D0A9F7CD
:1012F000EACFB4E0A6959795879577956795BA95C7
:10130000C9F700976105710508959B01AC010A2E8C
:1013100006945795479537952795BA95C9F7620F63
:10132000731F841F951FA01D08959095809570953B
:1013300061957F4F8F4F9F4F08952F923F924F920D
:101340005F926F927F928F929F92AF92BF92CF9255
:10135000DF92EF92FF920F931F93CF93DF93CDB75E
:10136000DEB7CA1BDB0B0FB6F894DEBF0FBECDBFD6
:1013700009942A88398848885F846E847D848C84A7
:101380009B84AA84B984C884DF80EE80FD800C81B0
:101390001B81AA81B981CE0FD11D0FB6F894DEBF93
:1013A0000FBECDBFED010895F894FFCF076342361D
:1013B000B79BD8A71A39685618AEBAAB558C1D3CE6
:1013C000B7CC5763BD6DEDFD753EF6177231BF00AA
:1013D0000000803F08000000BE922449123EABAAE4
:1013E000AA2ABECDCCCC4C3E00000080BEABAAAA3F
:1013F000AA3E00000000BF000000803F0000000087
:1014000000084178D3BB4387D1133D190E3CC3BDBF
:101410004282AD2B3E68EC8276BED98FE1A93E4C6C
:0E14200080EFFFBE01C4FF7F3F000000000010
:10142E004E677579656E20486169204E616D005575
:0E143E004554004E756D6265723A20256400BB
:00000001FF
